{
  "_format": "hh-sol-artifact-1",
  "contractName": "FeeVault",
  "sourceName": "contracts/FeeVault.sol",
  "abi": [
    {
      "inputs": [
        {
          "internalType": "address",
          "name": "_admin",
          "type": "address"
        },
        {
          "internalType": "address",
          "name": "_hotWallet",
          "type": "address"
        },
        {
          "internalType": "uint256",
          "name": "_sweepCooldown",
          "type": "uint256"
        }
      ],
      "stateMutability": "nonpayable",
      "type": "constructor"
    },
    {
      "inputs": [],
      "name": "CooldownNotElapsed",
      "type": "error"
    },
    {
      "inputs": [],
      "name": "NotAdmin",
      "type": "error"
    },
    {
      "inputs": [],
      "name": "SweepFailed",
      "type": "error"
    },
    {
      "inputs": [],
      "name": "ZeroAddress",
      "type": "error"
    },
    {
      "anonymous": false,
      "inputs": [
        {
          "indexed": false,
          "internalType": "uint256",
          "name": "oldCooldown",
          "type": "uint256"
        },
        {
          "indexed": false,
          "internalType": "uint256",
          "name": "newCooldown",
          "type": "uint256"
        }
      ],
      "name": "CooldownUpdated",
      "type": "event"
    },
    {
      "anonymous": false,
      "inputs": [
        {
          "indexed": true,
          "internalType": "address",
          "name": "from",
          "type": "address"
        },
        {
          "indexed": false,
          "internalType": "uint256",
          "name": "amount",
          "type": "uint256"
        }
      ],
      "name": "FeeReceived",
      "type": "event"
    },
    {
      "anonymous": false,
      "inputs": [
        {
          "indexed": true,
          "internalType": "address",
          "name": "to",
          "type": "address"
        },
        {
          "indexed": false,
          "internalType": "uint256",
          "name": "amount",
          "type": "uint256"
        }
      ],
      "name": "FeesSwept",
      "type": "event"
    },
    {
      "anonymous": false,
      "inputs": [
        {
          "indexed": false,
          "internalType": "address",
          "name": "oldWallet",
          "type": "address"
        },
        {
          "indexed": false,
          "internalType": "address",
          "name": "newWallet",
          "type": "address"
        }
      ],
      "name": "HotWalletUpdated",
      "type": "event"
    },
    {
      "inputs": [],
      "name": "admin",
      "outputs": [
        {
          "internalType": "address",
          "name": "",
          "type": "address"
        }
      ],
      "stateMutability": "view",
      "type": "function"
    },
    {
      "inputs": [],
      "name": "hotWallet",
      "outputs": [
        {
          "internalType": "address",
          "name": "",
          "type": "address"
        }
      ],
      "stateMutability": "view",
      "type": "function"
    },
    {
      "inputs": [],
      "name": "lastSweepTime",
      "outputs": [
        {
          "internalType": "uint256",
          "name": "",
          "type": "uint256"
        }
      ],
      "stateMutability": "view",
      "type": "function"
    },
    {
      "inputs": [
        {
          "internalType": "address",
          "name": "_wallet",
          "type": "address"
        }
      ],
      "name": "setHotWallet",
      "outputs": [],
      "stateMutability": "nonpayable",
      "type": "function"
    },
    {
      "inputs": [
        {
          "internalType": "uint256",
          "name": "_seconds",
          "type": "uint256"
        }
      ],
      "name": "setSweepCooldown",
      "outputs": [],
      "stateMutability": "nonpayable",
      "type": "function"
    },
    {
      "inputs": [],
      "name": "sweep",
      "outputs": [],
      "stateMutability": "nonpayable",
      "type": "function"
    },
    {
      "inputs": [],
      "name": "sweepCooldown",
      "outputs": [
        {
          "internalType": "uint256",
          "name": "",
          "type": "uint256"
        }
      ],
      "stateMutability": "view",
      "type": "function"
    },
    {
      "stateMutability": "payable",
      "type": "receive"
    }
  ],
  "bytecode": "0x608060405234801561001057600080fd5b5060405162000b7638038062000b76833981810160405281019061003491906101fb565b600073ffffffffffffffffffffffffffffffffffffffff168373ffffffffffffffffffffffffffffffffffffffff16148061009b5750600073ffffffffffffffffffffffffffffffffffffffff168273ffffffffffffffffffffffffffffffffffffffff16145b156100d2576040517fd92e233d00000000000000000000000000000000000000000000000000000000815260040160405180910390fd5b826000806101000a81548173ffffffffffffffffffffffffffffffffffffffff021916908373ffffffffffffffffffffffffffffffffffffffff16021790555081600160006101000a81548173ffffffffffffffffffffffffffffffffffffffff021916908373ffffffffffffffffffffffffffffffffffffffff1602179055508060028190555050505061024e565b600080fd5b600073ffffffffffffffffffffffffffffffffffffffff82169050919050565b600061019282610167565b9050919050565b6101a281610187565b81146101ad57600080fd5b50565b6000815190506101bf81610199565b92915050565b6000819050919050565b6101d8816101c5565b81146101e357600080fd5b50565b6000815190506101f5816101cf565b92915050565b60008060006060848603121561021457610213610162565b5b6000610222868287016101b0565b9350506020610233868287016101b0565b9250506040610244868287016101e6565b9150509250925092565b610918806200025e6000396000f3fe6080604052600436106100745760003560e01c806335faa4161161004e57806335faa4161461014f5780639fb755d714610166578063f045cae31461018f578063f851a440146101b8576100c9565b806312481ad6146100ce57806314e853b5146100f957806329113bc814610124576100c9565b366100c9573373ffffffffffffffffffffffffffffffffffffffff167fbb527541f6cc244ae00ab689f8c23d072a30a3b4176021df62ea1c2bac8aa226346040516100bf91906106b9565b60405180910390a2005b600080fd5b3480156100da57600080fd5b506100e36101e3565b6040516100f091906106b9565b60405180910390f35b34801561010557600080fd5b5061010e6101e9565b60405161011b91906106b9565b60405180910390f35b34801561013057600080fd5b506101396101ef565b6040516101469190610715565b60405180910390f35b34801561015b57600080fd5b50610164610215565b005b34801561017257600080fd5b5061018d60048036038101906101889190610761565b610428565b005b34801561019b57600080fd5b506101b660048036038101906101b191906107ba565b6105b2565b005b3480156101c457600080fd5b506101cd61067c565b6040516101da9190610715565b60405180910390f35b60035481565b60025481565b600160009054906101000a900473ffffffffffffffffffffffffffffffffffffffff1681565b60008054906101000a900473ffffffffffffffffffffffffffffffffffffffff1673ffffffffffffffffffffffffffffffffffffffff163373ffffffffffffffffffffffffffffffffffffffff161461029a576040517f7bfa4b9f00000000000000000000000000000000000000000000000000000000815260040160405180910390fd5b600254600354426102ab9190610816565b10156102e3576040517fa22b745e00000000000000000000000000000000000000000000000000000000815260040160405180910390fd5b6000479050426003819055506000600160009054906101000a900473ffffffffffffffffffffffffffffffffffffffff1673ffffffffffffffffffffffffffffffffffffffff16826040516103379061087b565b60006040518083038185875af1925050503d8060008114610374576040519150601f19603f3d011682016040523d82523d6000602084013e610379565b606091505b50509050806103b4576040517f9eec2ff800000000000000000000000000000000000000000000000000000000815260040160405180910390fd5b600160009054906101000a900473ffffffffffffffffffffffffffffffffffffffff1673ffffffffffffffffffffffffffffffffffffffff167fb6c81b526e1bd55a3845d8caa6fe0c1ce87b3c9e534eec43f43b3c1849d4e2e88360405161041c91906106b9565b60405180910390a25050565b60008054906101000a900473ffffffffffffffffffffffffffffffffffffffff1673ffffffffffffffffffffffffffffffffffffffff163373ffffffffffffffffffffffffffffffffffffffff16146104ad576040517f7bfa4b9f00000000000000000000000000000000000000000000000000000000815260040160405180910390fd5b600073ffffffffffffffffffffffffffffffffffffffff168173ffffffffffffffffffffffffffffffffffffffff1603610513576040517fd92e233d00000000000000000000000000000000000000000000000000000000815260040160405180910390fd5b7f6e73ffa1a8f189f9779dbf1c167b351dcf9278e2d77b08f45e0244a6d2d2a2b7600160009054906101000a900473ffffffffffffffffffffffffffffffffffffffff1682604051610566929190610890565b60405180910390a180600160006101000a81548173ffffffffffffffffffffffffffffffffffffffff021916908373ffffffffffffffffffffffffffffffffffffffff16021790555050565b60008054906101000a900473ffffffffffffffffffffffffffffffffffffffff1673ffffffffffffffffffffffffffffffffffffffff163373ffffffffffffffffffffffffffffffffffffffff1614610637576040517f7bfa4b9f00000000000000000000000000000000000000000000000000000000815260040160405180910390fd5b7f5953b565c074c2cce1866b4e69c9efc4908556bb6fca70f735907c94d94055156002548260405161066a9291906108b9565b60405180910390a18060028190555050565b60008054906101000a900473ffffffffffffffffffffffffffffffffffffffff1681565b6000819050919050565b6106b3816106a0565b82525050565b60006020820190506106ce60008301846106aa565b92915050565b600073ffffffffffffffffffffffffffffffffffffffff82169050919050565b60006106ff826106d4565b9050919050565b61070f816106f4565b82525050565b600060208201905061072a6000830184610706565b92915050565b600080fd5b61073e816106f4565b811461074957600080fd5b50565b60008135905061075b81610735565b92915050565b60006020828403121561077757610776610730565b5b60006107858482850161074c565b91505092915050565b610797816106a0565b81146107a257600080fd5b50565b6000813590506107b48161078e565b92915050565b6000602082840312156107d0576107cf610730565b5b60006107de848285016107a5565b91505092915050565b7f4e487b7100000000000000000000000000000000000000000000000000000000600052601160045260246000fd5b6000610821826106a0565b915061082c836106a0565b9250828203905081811115610844576108436107e7565b5b92915050565b600081905092915050565b50565b600061086560008361084a565b915061087082610855565b600082019050919050565b600061088682610858565b9150819050919050565b60006040820190506108a56000830185610706565b6108b26020830184610706565b9392505050565b60006040820190506108ce60008301856106aa565b6108db60208301846106aa565b939250505056fea264697066735822122016d240849d8226a17e14714c7c05e34b3ba41b12e70fe5ec77241f3ce07b642864736f6c63430008180033",
  "linkReferences": {},
  "deployedLinkReferences": {}
}