{
  "_format": "hh-sol-artifact-1",
  "contractName": "MonopolyGame",
  "sourceName": "contracts/MonopolyGame.sol",
  "abi": [
    {
      "inputs": [
        {
          "internalType": "address",
          "name": "_owner",
          "type": "address"
        },
        {
          "internalType": "address",
          "name": "_gameSigner",
          "type": "address"
        },
        {
          "internalType": "address",
          "name": "_feeVault",
          "type": "address"
        },
        {
          "internalType": "uint256",
          "name": "_feeBps",
          "type": "uint256"
        }
      ],
      "stateMutability": "nonpayable",
      "type": "constructor"
    },
    {
      "inputs": [],
      "name": "AlreadyDeposited",
      "type": "error"
    },
    {
      "inputs": [],
      "name": "AlreadyRefunded",
      "type": "error"
    },
    {
      "inputs": [],
      "name": "BuyInTooLow",
      "type": "error"
    },
    {
      "inputs": [],
      "name": "ECDSAInvalidSignature",
      "type": "error"
    },
    {
      "inputs": [
        {
          "internalType": "uint256",
          "name": "length",
          "type": "uint256"
        }
      ],
      "name": "ECDSAInvalidSignatureLength",
      "type": "error"
    },
    {
      "inputs": [
        {
          "internalType": "bytes32",
          "name": "s",
          "type": "bytes32"
        }
      ],
      "name": "ECDSAInvalidSignatureS",
      "type": "error"
    },
    {
      "inputs": [],
      "name": "FeeTooHigh",
      "type": "error"
    },
    {
      "inputs": [],
      "name": "GameAlreadyExists",
      "type": "error"
    },
    {
      "inputs": [],
      "name": "GameFull",
      "type": "error"
    },
    {
      "inputs": [],
      "name": "GameNotActive",
      "type": "error"
    },
    {
      "inputs": [],
      "name": "GameNotCancelled",
      "type": "error"
    },
    {
      "inputs": [],
      "name": "GameNotWaiting",
      "type": "error"
    },
    {
      "inputs": [],
      "name": "IncorrectBuyIn",
      "type": "error"
    },
    {
      "inputs": [],
      "name": "InvalidMaxPlayers",
      "type": "error"
    },
    {
      "inputs": [],
      "name": "InvalidSignature",
      "type": "error"
    },
    {
      "inputs": [],
      "name": "NonceAlreadyUsed",
      "type": "error"
    },
    {
      "inputs": [],
      "name": "NotAPlayer",
      "type": "error"
    },
    {
      "inputs": [
        {
          "internalType": "address",
          "name": "owner",
          "type": "address"
        }
      ],
      "name": "OwnableInvalidOwner",
      "type": "error"
    },
    {
      "inputs": [
        {
          "internalType": "address",
          "name": "account",
          "type": "address"
        }
      ],
      "name": "OwnableUnauthorizedAccount",
      "type": "error"
    },
    {
      "inputs": [],
      "name": "ReentrancyGuardReentrantCall",
      "type": "error"
    },
    {
      "inputs": [],
      "name": "TimeoutNotReached",
      "type": "error"
    },
    {
      "inputs": [],
      "name": "TransferFailed",
      "type": "error"
    },
    {
      "inputs": [],
      "name": "ZeroAddress",
      "type": "error"
    },
    {
      "anonymous": false,
      "inputs": [
        {
          "indexed": false,
          "internalType": "uint256",
          "name": "oldBps",
          "type": "uint256"
        },
        {
          "indexed": false,
          "internalType": "uint256",
          "name": "newBps",
          "type": "uint256"
        }
      ],
      "name": "FeeBpsUpdated",
      "type": "event"
    },
    {
      "anonymous": false,
      "inputs": [
        {
          "indexed": false,
          "internalType": "address",
          "name": "oldVault",
          "type": "address"
        },
        {
          "indexed": false,
          "internalType": "address",
          "name": "newVault",
          "type": "address"
        }
      ],
      "name": "FeeVaultUpdated",
      "type": "event"
    },
    {
      "anonymous": false,
      "inputs": [
        {
          "indexed": true,
          "internalType": "bytes32",
          "name": "gameId",
          "type": "bytes32"
        }
      ],
      "name": "GameCancelled",
      "type": "event"
    },
    {
      "anonymous": false,
      "inputs": [
        {
          "indexed": true,
          "internalType": "bytes32",
          "name": "gameId",
          "type": "bytes32"
        },
        {
          "indexed": false,
          "internalType": "uint256",
          "name": "buyIn",
          "type": "uint256"
        },
        {
          "indexed": false,
          "internalType": "uint256",
          "name": "maxPlayers",
          "type": "uint256"
        }
      ],
      "name": "GameCreated",
      "type": "event"
    },
    {
      "anonymous": false,
      "inputs": [
        {
          "indexed": true,
          "internalType": "bytes32",
          "name": "gameId",
          "type": "bytes32"
        },
        {
          "indexed": true,
          "internalType": "address",
          "name": "winner",
          "type": "address"
        },
        {
          "indexed": false,
          "internalType": "uint256",
          "name": "payout",
          "type": "uint256"
        }
      ],
      "name": "GameSettled",
      "type": "event"
    },
    {
      "anonymous": false,
      "inputs": [
        {
          "indexed": true,
          "internalType": "bytes32",
          "name": "gameId",
          "type": "bytes32"
        }
      ],
      "name": "GameStarted",
      "type": "event"
    },
    {
      "anonymous": false,
      "inputs": [
        {
          "indexed": true,
          "internalType": "address",
          "name": "previousOwner",
          "type": "address"
        },
        {
          "indexed": true,
          "internalType": "address",
          "name": "newOwner",
          "type": "address"
        }
      ],
      "name": "OwnershipTransferred",
      "type": "event"
    },
    {
      "anonymous": false,
      "inputs": [
        {
          "indexed": true,
          "internalType": "bytes32",
          "name": "gameId",
          "type": "bytes32"
        },
        {
          "indexed": true,
          "internalType": "address",
          "name": "player",
          "type": "address"
        },
        {
          "indexed": false,
          "internalType": "uint256",
          "name": "amount",
          "type": "uint256"
        }
      ],
      "name": "PlayerJoined",
      "type": "event"
    },
    {
      "anonymous": false,
      "inputs": [
        {
          "indexed": true,
          "internalType": "bytes32",
          "name": "gameId",
          "type": "bytes32"
        },
        {
          "indexed": true,
          "internalType": "address",
          "name": "player",
          "type": "address"
        },
        {
          "indexed": false,
          "internalType": "uint256",
          "name": "amount",
          "type": "uint256"
        }
      ],
      "name": "RefundClaimed",
      "type": "event"
    },
    {
      "anonymous": false,
      "inputs": [
        {
          "indexed": false,
          "internalType": "address",
          "name": "oldSigner",
          "type": "address"
        },
        {
          "indexed": false,
          "internalType": "address",
          "name": "newSigner",
          "type": "address"
        }
      ],
      "name": "SignerUpdated",
      "type": "event"
    },
    {
      "inputs": [],
      "name": "EMERGENCY_TIMEOUT",
      "outputs": [
        {
          "internalType": "uint256",
          "name": "",
          "type": "uint256"
        }
      ],
      "stateMutability": "view",
      "type": "function"
    },
    {
      "inputs": [],
      "name": "MAX_FEE_BPS",
      "outputs": [
        {
          "internalType": "uint256",
          "name": "",
          "type": "uint256"
        }
      ],
      "stateMutability": "view",
      "type": "function"
    },
    {
      "inputs": [],
      "name": "MIN_BUY_IN",
      "outputs": [
        {
          "internalType": "uint256",
          "name": "",
          "type": "uint256"
        }
      ],
      "stateMutability": "view",
      "type": "function"
    },
    {
      "inputs": [
        {
          "internalType": "bytes32",
          "name": "gameId",
          "type": "bytes32"
        },
        {
          "internalType": "bytes32",
          "name": "nonce",
          "type": "bytes32"
        },
        {
          "internalType": "bytes",
          "name": "signature",
          "type": "bytes"
        }
      ],
      "name": "cancelGame",
      "outputs": [],
      "stateMutability": "nonpayable",
      "type": "function"
    },
    {
      "inputs": [
        {
          "internalType": "bytes32",
          "name": "gameId",
          "type": "bytes32"
        }
      ],
      "name": "claimRefund",
      "outputs": [],
      "stateMutability": "nonpayable",
      "type": "function"
    },
    {
      "inputs": [
        {
          "internalType": "bytes32",
          "name": "gameId",
          "type": "bytes32"
        },
        {
          "internalType": "bytes32",
          "name": "nonce",
          "type": "bytes32"
        },
        {
          "internalType": "bytes",
          "name": "signature",
          "type": "bytes"
        }
      ],
      "name": "claimWinnings",
      "outputs": [],
      "stateMutability": "nonpayable",
      "type": "function"
    },
    {
      "inputs": [
        {
          "internalType": "bytes32",
          "name": "gameId",
          "type": "bytes32"
        },
        {
          "internalType": "uint256",
          "name": "maxPlayers",
          "type": "uint256"
        }
      ],
      "name": "createGame",
      "outputs": [],
      "stateMutability": "payable",
      "type": "function"
    },
    {
      "inputs": [
        {
          "internalType": "bytes32",
          "name": "",
          "type": "bytes32"
        },
        {
          "internalType": "address",
          "name": "",
          "type": "address"
        }
      ],
      "name": "deposited",
      "outputs": [
        {
          "internalType": "bool",
          "name": "",
          "type": "bool"
        }
      ],
      "stateMutability": "view",
      "type": "function"
    },
    {
      "inputs": [
        {
          "internalType": "bytes32",
          "name": "gameId",
          "type": "bytes32"
        }
      ],
      "name": "emergencyCancel",
      "outputs": [],
      "stateMutability": "nonpayable",
      "type": "function"
    },
    {
      "inputs": [],
      "name": "feeBps",
      "outputs": [
        {
          "internalType": "uint256",
          "name": "",
          "type": "uint256"
        }
      ],
      "stateMutability": "view",
      "type": "function"
    },
    {
      "inputs": [],
      "name": "feeVault",
      "outputs": [
        {
          "internalType": "address",
          "name": "",
          "type": "address"
        }
      ],
      "stateMutability": "view",
      "type": "function"
    },
    {
      "inputs": [],
      "name": "gameSigner",
      "outputs": [
        {
          "internalType": "address",
          "name": "",
          "type": "address"
        }
      ],
      "stateMutability": "view",
      "type": "function"
    },
    {
      "inputs": [
        {
          "internalType": "bytes32",
          "name": "gameId",
          "type": "bytes32"
        }
      ],
      "name": "getGame",
      "outputs": [
        {
          "internalType": "uint256",
          "name": "buyIn",
          "type": "uint256"
        },
        {
          "internalType": "uint256",
          "name": "maxPlayers",
          "type": "uint256"
        },
        {
          "internalType": "uint256",
          "name": "pot",
          "type": "uint256"
        },
        {
          "internalType": "uint256",
          "name": "startedAt",
          "type": "uint256"
        },
        {
          "internalType": "enum MonopolyGame.GameState",
          "name": "state",
          "type": "uint8"
        },
        {
          "internalType": "address[]",
          "name": "players",
          "type": "address[]"
        },
        {
          "internalType": "address",
          "name": "winner",
          "type": "address"
        }
      ],
      "stateMutability": "view",
      "type": "function"
    },
    {
      "inputs": [
        {
          "internalType": "bytes32",
          "name": "gameId",
          "type": "bytes32"
        }
      ],
      "name": "joinGame",
      "outputs": [],
      "stateMutability": "payable",
      "type": "function"
    },
    {
      "inputs": [],
      "name": "owner",
      "outputs": [
        {
          "internalType": "address",
          "name": "",
          "type": "address"
        }
      ],
      "stateMutability": "view",
      "type": "function"
    },
    {
      "inputs": [
        {
          "internalType": "bytes32",
          "name": "",
          "type": "bytes32"
        },
        {
          "internalType": "address",
          "name": "",
          "type": "address"
        }
      ],
      "name": "refunded",
      "outputs": [
        {
          "internalType": "bool",
          "name": "",
          "type": "bool"
        }
      ],
      "stateMutability": "view",
      "type": "function"
    },
    {
      "inputs": [],
      "name": "renounceOwnership",
      "outputs": [],
      "stateMutability": "nonpayable",
      "type": "function"
    },
    {
      "inputs": [
        {
          "internalType": "uint256",
          "name": "_bps",
          "type": "uint256"
        }
      ],
      "name": "setFeeBps",
      "outputs": [],
      "stateMutability": "nonpayable",
      "type": "function"
    },
    {
      "inputs": [
        {
          "internalType": "address",
          "name": "_vault",
          "type": "address"
        }
      ],
      "name": "setFeeVault",
      "outputs": [],
      "stateMutability": "nonpayable",
      "type": "function"
    },
    {
      "inputs": [
        {
          "internalType": "address",
          "name": "_signer",
          "type": "address"
        }
      ],
      "name": "setGameSigner",
      "outputs": [],
      "stateMutability": "nonpayable",
      "type": "function"
    },
    {
      "inputs": [
        {
          "internalType": "address",
          "name": "newOwner",
          "type": "address"
        }
      ],
      "name": "transferOwnership",
      "outputs": [],
      "stateMutability": "nonpayable",
      "type": "function"
    },
    {
      "inputs": [
        {
          "internalType": "bytes32",
          "name": "",
          "type": "bytes32"
        }
      ],
      "name": "usedNonces",
      "outputs": [
        {
          "internalType": "bool",
          "name": "",
          "type": "bool"
        }
      ],
      "stateMutability": "view",
      "type": "function"
    }
  ],
  "bytecode": "0x60806040523480156200001157600080fd5b506040516200300d3803806200300d83398181016040528101906200003791906200039f565b83600073ffffffffffffffffffffffffffffffffffffffff168173ffffffffffffffffffffffffffffffffffffffff1603620000ad5760006040517f1e4fbdf7000000000000000000000000000000000000000000000000000000008152600401620000a4919062000422565b60405180910390fd5b620000be816200023660201b60201c565b5060018081905550600073ffffffffffffffffffffffffffffffffffffffff168373ffffffffffffffffffffffffffffffffffffffff1614806200012e5750600073ffffffffffffffffffffffffffffffffffffffff168273ffffffffffffffffffffffffffffffffffffffff16145b1562000166576040517fd92e233d00000000000000000000000000000000000000000000000000000000815260040160405180910390fd5b6103e8811115620001a3576040517fcd4e616700000000000000000000000000000000000000000000000000000000815260040160405180910390fd5b82600260006101000a81548173ffffffffffffffffffffffffffffffffffffffff021916908373ffffffffffffffffffffffffffffffffffffffff16021790555081600360006101000a81548173ffffffffffffffffffffffffffffffffffffffff021916908373ffffffffffffffffffffffffffffffffffffffff16021790555080600481905550505050506200043f565b60008060009054906101000a900473ffffffffffffffffffffffffffffffffffffffff169050816000806101000a81548173ffffffffffffffffffffffffffffffffffffffff021916908373ffffffffffffffffffffffffffffffffffffffff1602179055508173ffffffffffffffffffffffffffffffffffffffff168173ffffffffffffffffffffffffffffffffffffffff167f8be0079c531659141344cd1fd0a4f28419497f9722a3daafe3b4186f6b6457e060405160405180910390a35050565b600080fd5b600073ffffffffffffffffffffffffffffffffffffffff82169050919050565b60006200032c82620002ff565b9050919050565b6200033e816200031f565b81146200034a57600080fd5b50565b6000815190506200035e8162000333565b92915050565b6000819050919050565b620003798162000364565b81146200038557600080fd5b50565b60008151905062000399816200036e565b92915050565b60008060008060808587031215620003bc57620003bb620002fa565b5b6000620003cc878288016200034d565b9450506020620003df878288016200034d565b9350506040620003f2878288016200034d565b9250506060620004058782880162000388565b91505092959194509250565b6200041c816200031f565b82525050565b600060208201905062000439600083018462000411565b92915050565b612bbe806200044f6000396000f3fe6080604052600436106101355760003560e01c80638da5cb5b116100ab578063d55be8c61161006f578063d55be8c6146103d6578063f2fde38b14610401578063f6c4c1f21461042a578063fbfa3ecf14610453578063fc4a2a9514610490578063feb61724146104bb57610135565b80638da5cb5b1461030d578063a591f97f14610338578063b0997f7914610361578063bf4747661461039e578063c0b9c53c146103ba57610135565b8063715018a6116100fd578063715018a61461020d57806371de2ffc1461022457806372c27b621461024d57806373931bbf146102765780637e646463146102b95780637f264076146102e257610135565b806313ab79291461013a57806324a9d8531461016357806337d01f7a1461018e57806345ef118f146101b9578063478222c2146101e2575b600080fd5b34801561014657600080fd5b50610161600480360381019061015c9190612320565b6104f8565b005b34801561016f57600080fd5b506101786107ca565b60405161018591906123ad565b60405180910390f35b34801561019a57600080fd5b506101a36107d0565b6040516101b09190612409565b60405180910390f35b3480156101c557600080fd5b506101e060048036038101906101db9190612424565b6107f6565b005b3480156101ee57600080fd5b506101f76109fe565b6040516102049190612409565b60405180910390f35b34801561021957600080fd5b50610222610a24565b005b34801561023057600080fd5b5061024b60048036038101906102469190612424565b610a38565b005b34801561025957600080fd5b50610274600480360381019061026f919061247d565b610d5e565b005b34801561028257600080fd5b5061029d60048036038101906102989190612424565b610de7565b6040516102b097969594939291906125df565b60405180910390f35b3480156102c557600080fd5b506102e060048036038101906102db9190612320565b610efa565b005b3480156102ee57600080fd5b506102f7611484565b60405161030491906123ad565b60405180910390f35b34801561031957600080fd5b5061032261148b565b60405161032f9190612409565b60405180910390f35b34801561034457600080fd5b5061035f600480360381019061035a9190612681565b6114b4565b005b34801561036d57600080fd5b50610388600480360381019061038391906126ae565b6115c1565b6040516103959190612709565b60405180910390f35b6103b860048036038101906103b39190612424565b6115f0565b005b6103d460048036038101906103cf9190612724565b61193e565b005b3480156103e257600080fd5b506103eb611bd0565b6040516103f891906123ad565b60405180910390f35b34801561040d57600080fd5b5061042860048036038101906104239190612681565b611bd6565b005b34801561043657600080fd5b50610451600480360381019061044c9190612681565b611c5c565b005b34801561045f57600080fd5b5061047a600480360381019061047591906126ae565b611d69565b6040516104879190612709565b60405180910390f35b34801561049c57600080fd5b506104a5611d98565b6040516104b291906123ad565b60405180910390f35b3480156104c757600080fd5b506104e260048036038101906104dd9190612424565b611da3565b6040516104ef9190612709565b60405180910390f35b600060056000868152602001908152602001600020905060006003811115610523576105226124aa565b5b8160040160009054906101000a900460ff166003811115610547576105466124aa565b5b1415801561058b575060016003811115610564576105636124aa565b5b8160040160009054906101000a900460ff166003811115610588576105876124aa565b5b14155b156105c2576040517f2dab725800000000000000000000000000000000000000000000000000000000815260040160405180910390fd5b6008600085815260200190815260200160002060009054906101000a900460ff161561061a576040517f1fb09b8000000000000000000000000000000000000000000000000000000000815260040160405180910390fd5b6000858530466040516020016106339493929190612845565b604051602081830303815290604052805190602001209050600061065682611dc3565b905060006106b186868080601f016020809104026020016040519081016040528093929190818152602001838380828437600081840152601f19601f8201169050808301925050505050505083611df990919063ffffffff16565b9050600260009054906101000a900473ffffffffffffffffffffffffffffffffffffffff1673ffffffffffffffffffffffffffffffffffffffff168173ffffffffffffffffffffffffffffffffffffffff161461073a576040517f8baa579f00000000000000000000000000000000000000000000000000000000815260040160405180910390fd5b60016008600089815260200190815260200160002060006101000a81548160ff02191690831515021790555060038460040160006101000a81548160ff0219169083600381111561078e5761078d6124aa565b5b0217905550877f730d9f4e127b4c1c5d999194f79025fe149736fbb95b0755b18ed20ddd01b4e060405160405180910390a25050505050505050565b60045481565b600260009054906101000a900473ffffffffffffffffffffffffffffffffffffffff1681565b600060056000838152602001908152602001600020905060016003811115610821576108206124aa565b5b8160040160009054906101000a900460ff166003811115610845576108446124aa565b5b1461087b576040517ea3097100000000000000000000000000000000000000000000000000000000815260040160405180910390fd5b6201518081600301544261088f91906128cd565b10156108c7576040517f9b0056ac00000000000000000000000000000000000000000000000000000000815260040160405180910390fd5b6000808260050180549050905060005b81811015610966573373ffffffffffffffffffffffffffffffffffffffff1684600501828154811061090c5761090b612901565b5b9060005260206000200160009054906101000a900473ffffffffffffffffffffffffffffffffffffffff1673ffffffffffffffffffffffffffffffffffffffff160361095b5760019250610966565b8060010190506108d7565b508161099e576040517fabca351700000000000000000000000000000000000000000000000000000000815260040160405180910390fd5b60038360040160006101000a81548160ff021916908360038111156109c6576109c56124aa565b5b0217905550837f730d9f4e127b4c1c5d999194f79025fe149736fbb95b0755b18ed20ddd01b4e060405160405180910390a250505050565b600360009054906101000a900473ffffffffffffffffffffffffffffffffffffffff1681565b610a2c611e25565b610a366000611eac565b565b610a40611f70565b6000600560008381526020019081526020016000209050600380811115610a6a57610a696124aa565b5b8160040160009054906101000a900460ff166003811115610a8e57610a8d6124aa565b5b14610ac5576040517f36c60f3300000000000000000000000000000000000000000000000000000000815260040160405180910390fd5b6006600083815260200190815260200160002060003373ffffffffffffffffffffffffffffffffffffffff1673ffffffffffffffffffffffffffffffffffffffff16815260200190815260200160002060009054906101000a900460ff16610b59576040517fabca351700000000000000000000000000000000000000000000000000000000815260040160405180910390fd5b6007600083815260200190815260200160002060003373ffffffffffffffffffffffffffffffffffffffff1673ffffffffffffffffffffffffffffffffffffffff16815260200190815260200160002060009054906101000a900460ff1615610bee576040517fa85e6f1a00000000000000000000000000000000000000000000000000000000815260040160405180910390fd5b60016007600084815260200190815260200160002060003373ffffffffffffffffffffffffffffffffffffffff1673ffffffffffffffffffffffffffffffffffffffff16815260200190815260200160002060006101000a81548160ff02191690831515021790555060003373ffffffffffffffffffffffffffffffffffffffff168260000154604051610c8190612961565b60006040518083038185875af1925050503d8060008114610cbe576040519150601f19603f3d011682016040523d82523d6000602084013e610cc3565b606091505b5050905080610cfe576040517f90b8ec1800000000000000000000000000000000000000000000000000000000815260040160405180910390fd5b3373ffffffffffffffffffffffffffffffffffffffff16837fe950d47bcc1a745a8ef1d8b86486b400a99681910425d126eb1a006d61f341b28460000154604051610d4991906123ad565b60405180910390a35050610d5b611fb6565b50565b610d66611e25565b6103e8811115610da2576040517fcd4e616700000000000000000000000000000000000000000000000000000000815260040160405180910390fd5b7f5ec5620e288c4be955ccb6cfb3d55431a8fed5c4c96ffacc4b9506360695f64e60045482604051610dd5929190612976565b60405180910390a18060048190555050565b60008060008060006060600080600560008a8152602001908152602001600020905080600001548160010154826002015483600301548460040160009054906101000a900460ff16856005018660060160009054906101000a900473ffffffffffffffffffffffffffffffffffffffff1681805480602002602001604051908101604052809291908181526020018280548015610ed957602002820191906000526020600020905b8160009054906101000a900473ffffffffffffffffffffffffffffffffffffffff1673ffffffffffffffffffffffffffffffffffffffff1681526020019060010190808311610e8f575b50505050509150975097509750975097509750975050919395979092949650565b610f02611f70565b600060056000868152602001908152602001600020905060016003811115610f2d57610f2c6124aa565b5b8160040160009054906101000a900460ff166003811115610f5157610f506124aa565b5b14610f87576040517ea3097100000000000000000000000000000000000000000000000000000000815260040160405180910390fd5b6008600085815260200190815260200160002060009054906101000a900460ff1615610fdf576040517f1fb09b8000000000000000000000000000000000000000000000000000000000815260040160405180910390fd5b60008533863046604051602001610ffa95949392919061299f565b604051602081830303815290604052805190602001209050600061101d82611dc3565b9050600061107886868080601f016020809104026020016040519081016040528093929190818152602001838380828437600081840152601f19601f8201169050808301925050505050505083611df990919063ffffffff16565b9050600260009054906101000a900473ffffffffffffffffffffffffffffffffffffffff1673ffffffffffffffffffffffffffffffffffffffff168173ffffffffffffffffffffffffffffffffffffffff1614611101576040517f8baa579f00000000000000000000000000000000000000000000000000000000815260040160405180910390fd5b6000808560050180549050905060005b818110156111a0573373ffffffffffffffffffffffffffffffffffffffff1687600501828154811061114657611145612901565b5b9060005260206000200160009054906101000a900473ffffffffffffffffffffffffffffffffffffffff1673ffffffffffffffffffffffffffffffffffffffff160361119557600192506111a0565b806001019050611111565b50816111d8576040517fabca351700000000000000000000000000000000000000000000000000000000815260040160405180910390fd5b6001600860008b815260200190815260200160002060006101000a81548160ff0219169083151502179055506000612710600454886002015461121b91906129fe565b6112259190612a6f565b9050600081886002015461123991906128cd565b905060028860040160006101000a81548160ff02191690836003811115611263576112626124aa565b5b0217905550338860060160006101000a81548173ffffffffffffffffffffffffffffffffffffffff021916908373ffffffffffffffffffffffffffffffffffffffff160217905550600082111561137b576000600360009054906101000a900473ffffffffffffffffffffffffffffffffffffffff1673ffffffffffffffffffffffffffffffffffffffff16836040516112fc90612961565b60006040518083038185875af1925050503d8060008114611339576040519150601f19603f3d011682016040523d82523d6000602084013e61133e565b606091505b5050905080611379576040517f90b8ec1800000000000000000000000000000000000000000000000000000000815260040160405180910390fd5b505b60003373ffffffffffffffffffffffffffffffffffffffff16826040516113a190612961565b60006040518083038185875af1925050503d80600081146113de576040519150601f19603f3d011682016040523d82523d6000602084013e6113e3565b606091505b505090508061141e576040517f90b8ec1800000000000000000000000000000000000000000000000000000000815260040160405180910390fd5b3373ffffffffffffffffffffffffffffffffffffffff168d7ffce0354c00ab4af4f14f27d7f87c8dd1af58253004b4438717419da2b4a899dd8460405161146591906123ad565b60405180910390a350505050505050505061147e611fb6565b50505050565b6201518081565b60008060009054906101000a900473ffffffffffffffffffffffffffffffffffffffff16905090565b6114bc611e25565b600073ffffffffffffffffffffffffffffffffffffffff168173ffffffffffffffffffffffffffffffffffffffff1603611522576040517fd92e233d00000000000000000000000000000000000000000000000000000000815260040160405180910390fd5b7f47ffc4777a9849fd88ac272225845f7bbcfa9920f222b459c2e6b28156ce7249600360009054906101000a900473ffffffffffffffffffffffffffffffffffffffff1682604051611575929190612aa0565b60405180910390a180600360006101000a81548173ffffffffffffffffffffffffffffffffffffffff021916908373ffffffffffffffffffffffffffffffffffffffff16021790555050565b60066020528160005260406000206020528060005260406000206000915091509054906101000a900460ff1681565b60006005600083815260200190815260200160002090506000600381111561161b5761161a6124aa565b5b8160040160009054906101000a900460ff16600381111561163f5761163e6124aa565b5b14611676576040517f2dab725800000000000000000000000000000000000000000000000000000000815260040160405180910390fd5b806000015434146116b3576040517f8f610c9700000000000000000000000000000000000000000000000000000000815260040160405180910390fd5b6006600083815260200190815260200160002060003373ffffffffffffffffffffffffffffffffffffffff1673ffffffffffffffffffffffffffffffffffffffff16815260200190815260200160002060009054906101000a900460ff1615611748576040517fd5a8211500000000000000000000000000000000000000000000000000000000815260040160405180910390fd5b806001015481600501805490501061178c576040517fb3ed896d00000000000000000000000000000000000000000000000000000000815260040160405180910390fd5b80600501339080600181540180825580915050600190039060005260206000200160009091909190916101000a81548173ffffffffffffffffffffffffffffffffffffffff021916908373ffffffffffffffffffffffffffffffffffffffff160217905550348160020160008282546118059190612ac9565b9250508190555060016006600084815260200190815260200160002060003373ffffffffffffffffffffffffffffffffffffffff1673ffffffffffffffffffffffffffffffffffffffff16815260200190815260200160002060006101000a81548160ff0219169083151502179055503373ffffffffffffffffffffffffffffffffffffffff16827f65525cf08411b7a61d237681a43890956ad2e2ede88afd947f58eb4158c37f95346040516118bc91906123ad565b60405180910390a3806001015481600501805490500361193a5760018160040160006101000a81548160ff021916908360038111156118fe576118fd6124aa565b5b0217905550428160030181905550817fee5528ba4f234f658c6a97a7e3cba5532e7aad23bb249be4141b62e6a0158a7c60405160405180910390a25b5050565b600281108061194d5750600681115b15611984576040517f65d4be2900000000000000000000000000000000000000000000000000000000815260040160405180910390fd5b66038d7ea4c680003410156119c5576040517f4c51149000000000000000000000000000000000000000000000000000000000815260040160405180910390fd5b6000600560008481526020019081526020016000206000015414611a15576040517f0ab805f900000000000000000000000000000000000000000000000000000000815260040160405180910390fd5b600060056000848152602001908152602001600020905034816000018190555081816001018190555034816002018190555060008160040160006101000a81548160ff02191690836003811115611a6f57611a6e6124aa565b5b021790555080600501339080600181540180825580915050600190039060005260206000200160009091909190916101000a81548173ffffffffffffffffffffffffffffffffffffffff021916908373ffffffffffffffffffffffffffffffffffffffff16021790555060016006600085815260200190815260200160002060003373ffffffffffffffffffffffffffffffffffffffff1673ffffffffffffffffffffffffffffffffffffffff16815260200190815260200160002060006101000a81548160ff021916908315150217905550827f99007d3126584f2f6e4cdfcf646170362922fd5747a1df30924ac78417be88613484604051611b74929190612976565b60405180910390a23373ffffffffffffffffffffffffffffffffffffffff16837f65525cf08411b7a61d237681a43890956ad2e2ede88afd947f58eb4158c37f9534604051611bc391906123ad565b60405180910390a3505050565b6103e881565b611bde611e25565b600073ffffffffffffffffffffffffffffffffffffffff168173ffffffffffffffffffffffffffffffffffffffff1603611c505760006040517f1e4fbdf7000000000000000000000000000000000000000000000000000000008152600401611c479190612409565b60405180910390fd5b611c5981611eac565b50565b611c64611e25565b600073ffffffffffffffffffffffffffffffffffffffff168173ffffffffffffffffffffffffffffffffffffffff1603611cca576040517fd92e233d00000000000000000000000000000000000000000000000000000000815260040160405180910390fd5b7f2d025324f0a785e8c12d0a0d91a9caa49df4ef20ff87e0df7213a1d4f3157beb600260009054906101000a900473ffffffffffffffffffffffffffffffffffffffff1682604051611d1d929190612aa0565b60405180910390a180600260006101000a81548173ffffffffffffffffffffffffffffffffffffffff021916908373ffffffffffffffffffffffffffffffffffffffff16021790555050565b60076020528160005260406000206020528060005260406000206000915091509054906101000a900460ff1681565b66038d7ea4c6800081565b60086020528060005260406000206000915054906101000a900460ff1681565b60007f19457468657265756d205369676e6564204d6573736167653a0a33320000000060005281601c52603c6000209050919050565b600080600080611e098686611fbf565b925092509250611e19828261201b565b82935050505092915050565b611e2d61217f565b73ffffffffffffffffffffffffffffffffffffffff16611e4b61148b565b73ffffffffffffffffffffffffffffffffffffffff1614611eaa57611e6e61217f565b6040517f118cdaa7000000000000000000000000000000000000000000000000000000008152600401611ea19190612409565b60405180910390fd5b565b60008060009054906101000a900473ffffffffffffffffffffffffffffffffffffffff169050816000806101000a81548173ffffffffffffffffffffffffffffffffffffffff021916908373ffffffffffffffffffffffffffffffffffffffff1602179055508173ffffffffffffffffffffffffffffffffffffffff168173ffffffffffffffffffffffffffffffffffffffff167f8be0079c531659141344cd1fd0a4f28419497f9722a3daafe3b4186f6b6457e060405160405180910390a35050565b600260015403611fac576040517f3ee5aeb500000000000000000000000000000000000000000000000000000000815260040160405180910390fd5b6002600181905550565b60018081905550565b600080600060418451036120045760008060006020870151925060408701519150606087015160001a9050611ff688828585612187565b955095509550505050612014565b60006002855160001b9250925092505b9250925092565b6000600381111561202f5761202e6124aa565b5b826003811115612042576120416124aa565b5b031561217b576001600381111561205c5761205b6124aa565b5b82600381111561206f5761206e6124aa565b5b036120a6576040517ff645eedf00000000000000000000000000000000000000000000000000000000815260040160405180910390fd5b600260038111156120ba576120b96124aa565b5b8260038111156120cd576120cc6124aa565b5b03612112578060001c6040517ffce698f700000000000000000000000000000000000000000000000000000000815260040161210991906123ad565b60405180910390fd5b600380811115612125576121246124aa565b5b826003811115612138576121376124aa565b5b0361217a57806040517fd78bce0c0000000000000000000000000000000000000000000000000000000081526004016121719190612b0c565b60405180910390fd5b5b5050565b600033905090565b60008060007f7fffffffffffffffffffffffffffffff5d576e7357a4501ddfe92f46681b20a08460001c11156121c7576000600385925092509250612271565b6000600188888888604051600081526020016040526040516121ec9493929190612b43565b6020604051602081039080840390855afa15801561220e573d6000803e3d6000fd5b505050602060405103519050600073ffffffffffffffffffffffffffffffffffffffff168173ffffffffffffffffffffffffffffffffffffffff160361226257600060016000801b93509350935050612271565b8060008060001b935093509350505b9450945094915050565b600080fd5b600080fd5b6000819050919050565b61229881612285565b81146122a357600080fd5b50565b6000813590506122b58161228f565b92915050565b600080fd5b600080fd5b600080fd5b60008083601f8401126122e0576122df6122bb565b5b8235905067ffffffffffffffff8111156122fd576122fc6122c0565b5b602083019150836001820283011115612319576123186122c5565b5b9250929050565b6000806000806060858703121561233a5761233961227b565b5b6000612348878288016122a6565b9450506020612359878288016122a6565b935050604085013567ffffffffffffffff81111561237a57612379612280565b5b612386878288016122ca565b925092505092959194509250565b6000819050919050565b6123a781612394565b82525050565b60006020820190506123c2600083018461239e565b92915050565b600073ffffffffffffffffffffffffffffffffffffffff82169050919050565b60006123f3826123c8565b9050919050565b612403816123e8565b82525050565b600060208201905061241e60008301846123fa565b92915050565b60006020828403121561243a5761243961227b565b5b6000612448848285016122a6565b91505092915050565b61245a81612394565b811461246557600080fd5b50565b60008135905061247781612451565b92915050565b6000602082840312156124935761249261227b565b5b60006124a184828501612468565b91505092915050565b7f4e487b7100000000000000000000000000000000000000000000000000000000600052602160045260246000fd5b600481106124ea576124e96124aa565b5b50565b60008190506124fb826124d9565b919050565b600061250b826124ed565b9050919050565b61251b81612500565b82525050565b600081519050919050565b600082825260208201905092915050565b6000819050602082019050919050565b612556816123e8565b82525050565b6000612568838361254d565b60208301905092915050565b6000602082019050919050565b600061258c82612521565b612596818561252c565b93506125a18361253d565b8060005b838110156125d25781516125b9888261255c565b97506125c483612574565b9250506001810190506125a5565b5085935050505092915050565b600060e0820190506125f4600083018a61239e565b612601602083018961239e565b61260e604083018861239e565b61261b606083018761239e565b6126286080830186612512565b81810360a083015261263a8185612581565b905061264960c08301846123fa565b98975050505050505050565b61265e816123e8565b811461266957600080fd5b50565b60008135905061267b81612655565b92915050565b6000602082840312156126975761269661227b565b5b60006126a58482850161266c565b91505092915050565b600080604083850312156126c5576126c461227b565b5b60006126d3858286016122a6565b92505060206126e48582860161266c565b9150509250929050565b60008115159050919050565b612703816126ee565b82525050565b600060208201905061271e60008301846126fa565b92915050565b6000806040838503121561273b5761273a61227b565b5b6000612749858286016122a6565b925050602061275a85828601612468565b9150509250929050565b600081905092915050565b7f43414e43454c0000000000000000000000000000000000000000000000000000600082015250565b60006127a5600683612764565b91506127b08261276f565b600682019050919050565b6000819050919050565b6127d66127d182612285565b6127bb565b82525050565b60008160601b9050919050565b60006127f4826127dc565b9050919050565b6000612806826127e9565b9050919050565b61281e612819826123e8565b6127fb565b82525050565b6000819050919050565b61283f61283a82612394565b612824565b82525050565b600061285082612798565b915061285c82876127c5565b60208201915061286c82866127c5565b60208201915061287c828561280d565b60148201915061288c828461282e565b60208201915081905095945050505050565b7f4e487b7100000000000000000000000000000000000000000000000000000000600052601160045260246000fd5b60006128d882612394565b91506128e383612394565b92508282039050818111156128fb576128fa61289e565b5b92915050565b7f4e487b7100000000000000000000000000000000000000000000000000000000600052603260045260246000fd5b600081905092915050565b50565b600061294b600083612930565b91506129568261293b565b600082019050919050565b600061296c8261293e565b9150819050919050565b600060408201905061298b600083018561239e565b612998602083018461239e565b9392505050565b60006129ab82886127c5565b6020820191506129bb828761280d565b6014820191506129cb82866127c5565b6020820191506129db828561280d565b6014820191506129eb828461282e565b6020820191508190509695505050505050565b6000612a0982612394565b9150612a1483612394565b9250828202612a2281612394565b91508282048414831517612a3957612a3861289e565b5b5092915050565b7f4e487b7100000000000000000000000000000000000000000000000000000000600052601260045260246000fd5b6000612a7a82612394565b9150612a8583612394565b925082612a9557612a94612a40565b5b828204905092915050565b6000604082019050612ab560008301856123fa565b612ac260208301846123fa565b9392505050565b6000612ad482612394565b9150612adf83612394565b9250828201905080821115612af757612af661289e565b5b92915050565b612b0681612285565b82525050565b6000602082019050612b216000830184612afd565b92915050565b600060ff82169050919050565b612b3d81612b27565b82525050565b6000608082019050612b586000830187612afd565b612b656020830186612b34565b612b726040830185612afd565b612b7f6060830184612afd565b9594505050505056fea2646970667358221220a2a563c39334a841b47af8ad1a8b30166587f8c716bcb1ded3e1b204f82327e264736f6c63430008180033",
  "linkReferences": {},
  "deployedLinkReferences": {}
}